:100000000C9446000C9465000C9465000C946500FB
:100010000C9465000C949F030C94F5000C946500FF
:100020000C9465000C9465000C9467000C946500BA
:100030000C9465000C9465000C9465000C946500AC
:100040000C94FF0D0C9465000C9465000C946500F5
:100050000C9465000C9465000C9465000C9465008C
:100060000C9465000C9465000C9465000C9465007C
:100070000C9465000C9465000C9465000C9465006C
:100080000C9465000C9465000C94650011241FBE4F
:10009000CFEFD0E1DEBFCDBF12E0A0E0B1E0E6E4FB
:1000A000FDE100E00BBF02C007900D92AE33B10737
:1000B000D9F717E0AEE3B2E001C01D92A030B1075E
:1000C000E1F70E9418030C94A10E0C9400001F92FB
:1000D0000F920FB60F920BB60F9211248F939F932E
:1000E000EF93FF9380914402909145020197D9F0DC
:1000F00080E188BB81E090E09093450280934402C8
:10010000E0914602F0914702EC5FFE4F808184BD92
:10011000FF91EF919F918F910F900BBE0F900FBEAB
:100120000F901F90189518BA109245021092440231
:10013000E7CF369A349BFECF24B145B1942F80E0AF
:1001400030E0282B392BC901089515BAE5E6F0E017
:1001500081E0808320E43FE1C9010197F1F782E06B
:100160008083C9010197F1F784E08083C901019779
:10017000F1F788E08083C9010197F1F71BBA089570
:100180008756934008F0089580915D0490915E0435
:1001900060E070E048E552E00E9433098091000180
:1001A000909101010196909301018093000180914B
:1001B000000190910101049789F028EE33E040E9B5
:1001C00051E0CA010197F1F721503040D1F78091F9
:1001D0005D0490915E040E941409089581E090E00E
:1001E0009093010180930001E8CF1F920F920FB608
:1001F0000F920BB60F9211242F933F934F935F935F
:100200006F937F938F939F93AF93BF93EF93FF93DE
:1002100080915D0490915E0460E070E048E552E0FA
:100220000E94330981E090E0909343028093420260
:1002300080915D0490915E040E941409FF91EF91FA
:10024000BF91AF919F918F917F916F915F914F91EE
:100250003F912F910F900BBE0F900FBE0F901F90EC
:1002600018950F931F9380915B0290915C026FEF42
:1002700042E020E030E008E512E00E94150B80E447
:1002800087BFE0914602F0914702EC5FFE4F80810C
:1002900084BD40E951E08091460290914702499720
:1002A000BCF48091460290914702019690934702D8
:1002B0008093460228E833E1CA010197F1F7215003
:1002C0003040D1F7809146029091470249974CF314
:1002D00080914802909149026FEF41E028E532E0B9
:1002E0000E949E0A1F910F910895CF92DF92EF9284
:1002F000FF920F931F93CF93DF93CC24C394C0E45A
:10030000DFE122E0D22E94E0E92E88E0F82E29C029
:100310000E9499000E94C000E0910001F09101014B
:10032000E35EFE4F808185BBC0926500CE010197E0
:10033000F1F780911D0185BBD0926500CE01019738
:10034000F1F780912D0185BBE0926500CE01019708
:10035000F1F78091330185BBF0926500CE010197E2
:10036000F1F78091420290914302019789F60E9431
:10037000A500809152029091530260E071E00E94CA
:10038000360A80914802909149026FEF42E820E0DE
:1003900030E008E512E00E94150BBACFEF92FF9211
:1003A0000F931F93CF93DF938FEF84BB8FE08093E6
:1003B0006400EE24E394C0E4DFE132E0F32E04E0D5
:1003C00018E0809154029091550260E070E048E599
:1003D00052E00E94500AFC0180818735A9F5709196
:1003E000320160911E0150913101409130012BE2A8
:1003F00031E075BBE0926500CE010197F1F765BB76
:10040000F0926500CE010197F1F755BB00936500AE
:10041000CE010197F1F745BB10936500CE0101971E
:10042000F1F7215030408FEF2F3F380711F78091BF
:100430005B0290915C026FEF41E028E532E00E94A0
:100440009E0A0E94A500BDCFF0913401E0912201E7
:1004500070911D01609133012BE231E001E040E435
:100460005FE112E0B4E0A8E0F5BB00936500CA01CB
:100470000197F1F7E5BB10936500CA010197F1F709
:1004800075BBB0936500CA010197F1F765BBA093F6
:100490006500CA010197F1F7215030408FEF2F3FDF
:1004A000380711F780914802909149026FEF41E0BF
:1004B00028E532E00E949E0ADF91CF911F910F91B3
:1004C000FF90EF9008953F924F925F926F927F92CC
:1004D0008F929F92AF92BF92CF92DF92EF92FF9254
:1004E0000F931F93DF93CF930F92CDB7DEB71BBA55
:1004F000809152029091530260E070E048E552E032
:100500000E94500AFC01208131818EEC9FEF289FD0
:100510006001299FD00C389FD00C112488EC90E00A
:10052000C80ED91EEE24FF244E010894811C911C94
:1005300060E8662E712C55245A9457E5452E4CE4FC
:10054000342E00E911E00894E11CF11CEC14FD04C8
:10055000BCF489818C3431F0809140029091410249
:10056000019751F124EF31E0C8010197F1F72150D3
:100570003040D1F70894E11CF11CEC14FD044CF35D
:1005800080915D0490915E0460E070E048E552E087
:100590000E9433091BBA398280915402909155020E
:1005A000B4010E94360A80915D0490915E040E941D
:1005B0001409EE24FF24D6CF8091590290915A025B
:1005C00060E070E048E552E00E94BF09FC01A080B5
:1005D000B180109241021092400297E0A916B10436
:1005E000D1F080915D0490915E0460E070E048E598
:1005F00052E00E9433092BB3C30102C09595879541
:10060000AA94E2F7280F2BBB80915D0490915E04C1
:100610000E941409A7CF80915D0490915E0460E070
:1006200070E048E552E00E9433095BBA4982B4CFDA
:100630000F931F930E94B70CF8948FEF8ABB80E151
:1006400087BB8FEC82B98AE08ABF80E389BF8FB70E
:1006500080688FBF17B887E886B983E085BD17BE6D
:10066000E0914602F0914702EC5FFE4F808184BD2D
:1006700081E090E00E947F0690935E0480935D0489
:1006800080E090E00E94EA0590935302809352022A
:1006900080E090E00E94EA05909355028093540216
:1006A00080E090E00E94EA05909357028093560202
:1006B0008AE492E064E070E00E940E0690935A0291
:1006C0008093590208E512E080E0B8010E940A0513
:1006D000909349028093480280E0B8010E940A0585
:1006E00090935C0280935B028EEC91E060E070E09E
:1006F0004CED52E021E00E94C00881E391E060E00F
:1007000070E04CE553E022E00E94C00885E791E0EC
:1007100060E070E04CED53E023E00E94C00883E607
:1007200092E060E070E04CE554E024E00E94C008F4
:100730000E94370C80E090E01F910F9108951F9266
:100740000F920FB60F920BB60F9211242F933F9377
:100750004F935F936F937F938F939F93AF93BF93C9
:10076000EF93FF9380915D0490915E0460E070E0F0
:1007700048E552E00E94330980913E0290913F0289
:10078000892B09F41BBA81E090E090933F0280939B
:100790003E02909341028093400280910201909129
:1007A000030108978CF48091020190910301019656
:1007B00090930301809302018091590290915A0213
:1007C00062E071E00E947E0980915D0490915E0478
:1007D0000E941409FF91EF91BF91AF919F918F916A
:1007E0007F916F915F914F913F912F910F900BBE31
:1007F0000F900FBE0F901F901895FA01808392936F
:1008000012921292129212921292129212921292C8
:1008100012921292129212921292129212921292B8
:1008200012921292129212921292129212921292A8
:1008300062937293129212921292129212921292E6
:10084000129280E882933197CF0108950895089518
:10085000089508950895089508950895089580913C
:100860006004813009F0089580913D058F3FD9F3F0
:100870008F5F80933D05089580916004813009F079
:100880000895F89480915F048F3F19F08F5F8093F3
:100890005F04789408958CEF90E00895FF920F9391
:1008A0001F93CF93DF93EC018B01F42E3981E32F5B
:1008B000F0E0E35CFE4F2081422F50E0FA01EB5C58
:1008C000FE4F7081DC01A40FB51F16969C91169700
:1008D000E92FF0E0E35CFE4F8081E82FF0E0EB5C75
:1008E000FE4F6081220F220F220F280F862F809546
:1008F000892316968C93882321F4872F809538239B
:100900003983E22FF0E0EE0FFF1FEE51F94F019017
:10091000F081E02D148613861782168211870087D6
:100920008F2D8095958589238587882359F480911B
:100930003705872B80933705FA01E85CFA4F8081F1
:10094000682B6083822FDF91CF911F910F91FF90D1
:100950000895CF93DF93EC01A0913E05B0913F0540
:1009600017969C938E93169750968C915097482F7C
:1009700050E051963C915197FA01E85CFA4F832F71
:1009800080959081892380838823A9F452962C91A5
:10099000922F909580913705892380933705FE012A
:1009A000E40FF51F8681832B86838981822B8983BF
:1009B000DF91CF91089552962C91F1CFCF93DF9391
:1009C000EC01A0913E05B0913F0550968C91509757
:1009D000FE01E80FF11D51968C91519780959681FB
:1009E00089238683882339F452969C915297909557
:1009F0008981892389831D961C921D9717961C92C5
:100A00001E921697DF91CF910895FC0111821682F4
:100A100017820895282FDB0180913D058823D9F4A2
:100A2000F894E091DF06F091E006309779F081814B
:100A300092819093E0068093DF0685E08083238394
:100A40001282118278941C92CF01089578948AE9D9
:100A50008C93CF0108958DE88C93E0E0F0E0F4CF23
:100A6000EF92FF920F931F93CF93DF937C01FB01D3
:100A7000A0913E05B0913F051D968C911D97806217
:100A80001D968C931D971C961C930E931B97408765
:100A90002187B583A483E70189819A81918380832B
:100AA00013821282F782E68289819A81009719F077
:100AB000EC017B836A83E701FA83E9835096EC912A
:100AC0005097F0E0E85CFA4F51968C9151978095E1
:100AD000908189238083882341F452969C9190953C
:100AE00080913705892380933705DF91CF911F913E
:100AF0000F91FF90EF90089526E634E0F901CF01C1
:100B00000496108292838183FC0184E0E637F80723
:100B1000B1F7128211823093E0062093DF06089528
:100B2000CF93DF93FC01A281B381C081D181109763
:100B300051F01196DC93CE93209711F0BB83AA83DA
:100B4000DF91CF9108950680F781E02DD283C18394
:100B50002097B1F31B821A82DF91CF9108951F93E2
:100B6000CF93DF93EC01AC81BD811C961C921E9249
:100B70001B971A966C931A971D968C911D978F7DD3
:100B80001D968C931D978823E1F48091370552962A
:100B90009C915297892B809337055096EC915097F2
:100BA000F0E0E85CFA4F808151969C91892B80831C
:100BB00011E0CE010E949005812FDF91CF911F910E
:100BC000089510E0CE010E949005812FDF91CF9112
:100BD0001F9108959C0180913D058823D9F4F894D4
:100BE000E0913A05F0913B05309731F08481958191
:100BF00090933B0580933A057894309749F081E0D3
:100C00008083138212823583248311821682178295
:100C1000CF010895E0E0F0E0CF0108959C018091BC
:100C20003D05882309F052C0F894E0913A05F0910F
:100C30003B05309731F08481958190933B058093FB
:100C40003A0578943097A9F1F894A0913505B091C0
:100C50003605109781F18D919C91119790933605EF
:100C600080933505789413963C932E931297CB017D
:100C7000880F991F820F931F15969C938E9314973C
:100C800017963C932E93169719963C932E9318978C
:100C90001B967C936E931A971D961C921E921C971E
:100CA00082E0808313821282B583A483118216822C
:100CB0001782CF01089580913A0590913B05958365
:100CC0008483F0933B05E0933A057894E0E0F0E00C
:100CD000CF01089587E195E090930A058093090577
:100CE0000E9690931805809317054C971092260541
:100CF00010922505909336058093350508959C0143
:100D000080913D058823D9F4F894E0913A05F0915B
:100D10003B05309731F08481958190933B0580931A
:100D20003A057894309749F083E0808333832283B7
:100D300015821482118216821782CF010895E0E095
:100D4000F0E0CF0108951F93CF93DF93182FF8940D
:100D5000C0910505D0910605209709F456C08A81F7
:100D60009B81909306058093050578947983688329
:100D70001E871D861C861B86E12FE695E695E69567
:100D8000E88BF0E0EB5CFE4F80818A8BE12FE7700F
:100D9000EF87F0E0EB5CFE4F8081898B1F821E8223
:100DA00019861886CE010E942E04CE010E942604C8
:100DB000F894E12FF0E0EE0FFF1FEE51F94FD183D1
:100DC000C083E0917B04F0917C04FB83EA831D8265
:100DD0001C82309711F0D583C483D0937C04C093D8
:100DE0007B04809137059A89892B80933705E889A0
:100DF000F0E0E85CFA4F80819989892B80837894B0
:100E000080E0DF91CF911F910895789486E4DF917F
:100E1000CF911F910895F89480916104909162049C
:100E2000A0916304B09164040196A11DB11D80934B
:100E3000610490936204A0936304B0936404789473
:100E40000E942D04E8CFF89480913D05882309F095
:100E50003FC080915F048823D9F5E0913705F0E029
:100E6000E35CFE4F8081E82FF0E0E85CFA4FE08120
:100E7000F0E0E35CFE4F982F990F990F990F808156
:100E8000980F9093650480917A04981709F1E92FDF
:100E9000F0E0EE0FFF1FEE51F94F808191819093AA
:100EA0003405809333058091FD049091FE04A09158
:100EB000FF04B09100050196A11DB11D8093FD04B2
:100EC0009093FE04A093FF04B09300050E94650D6B
:100ED000789408959C01009721F1F894A0913E0523
:100EE000B0913F055096EC915097F0E0E85CFA4FD6
:100EF00051968C9151978095908189238083882386
:100F000049F452969C915297909580913705892388
:100F1000809337051C963C932E931B9778940E94E0
:100F2000230708958F929F92AF92BF92CF92DF9244
:100F3000EF92FF920F931F93CF93DF93882E162F7C
:100F4000942E8823C9F01C3300F58BE3891590F0AB
:100F500093E0283E3907D8F083E5DF91CF911F91C8
:100F60000F91FF90EF90DF90CF90BF90AF909F9048
:100F70008F90089582E5F1CF662329F7442329F75E
:100F80002115310529F784E5E8CF81E5E6CFB901E0
:100F900080E090E024E630E040E050E00E94600E07
:100FA0006C507E4F8F4F9F4F28EE33E040E050E073
:100FB0000E947F0E59016A01612F70E080E090E08D
:100FC0002CE330E040E050E00E94600E7B018C0199
:100FD000E90CF11C011D111D682D70E080E090E00E
:100FE00020E13EE040E050E00E94600EE60EF71E79
:100FF000081F191FC801B70124E630E040E050E0A7
:101000000E94600EA60EB71EC81ED91E76010027CC
:101010001127E7018FEF9FEFA0E0B0E0A822B922EF
:10102000CA22DB22C5010E946A07EF2851F080E046
:1010300090E80E946A0780E090E80E946A07219782
:10104000B1F780E08ACFDF92EF92FF920F931F9368
:101050008091E106882341F488EC90E00E946A07C1
:101060008091E1068823C1F360910105709102052A
:10107000809103059091040524E630E040E050E0C3
:101080000E947F0EC901DA017C018D01E4E6DE2EAB
:1010900010C0A80197010E947F0E8D2D821B87FD35
:1010A00044C0809307050E94290484E690E00E94D2
:1010B0006A07F8948091610490916204A09163049E
:1010C000B09164048093FC069093FD06A093FE0605
:1010D000B093FF0660916104709162048091630493
:1010E000909164041092610410926204109263045F
:1010F000109264047894E114F1040105110549F695
:101100001092070560910105709102058091030519
:101110009091040524E630E040E050E00E947F0E0C
:10112000C901DA017C018D01BECF10920705BBCF4A
:1011300082E090E00E946A07F89410926104109295
:1011400062041092630410926404789484E690E040
:101150000E946A07F8948091610490916204A091C2
:101160006304B09164048093010590930205A093F9
:101170000305B093040581E08093E1067894089517
:10118000AF92BF92CF92DF92EF92FF920F931F9395
:10119000CF93DF93FC01122FF894C22FD0E0CC0F35
:1011A000DD1FCE51D94F88819981892B71F07894B8
:1011B00018E2812FDF91CF911F910F91FF90EF9057
:1011C000DF90CF90BF90AF90089581E090E0998339
:1011D00088837894CF0120E030E00E94FD03BC01B9
:1011E000812F40E050E020E030E0EE24FF24870132
:1011F000CC24DD24AA24BB240E94A306182F882314
:1012000071F4F894809108058F5F809308057894B5
:1012100080916004813069F60E942307CACFF89458
:10122000198218827894C5CFFC01F89481818823B3
:1012300079F4828193812FEF8F3F920731F00196ED
:1012400093838283789480E00895789482E308956C
:10125000CF0160E070E041E00E944E0478940E946B
:10126000230780E008950F931F93CF93DF93EC0142
:101270008A0180913D05882381F4F8948A819B81BD
:10128000009799F001979B838A837894FA011082E2
:10129000DF91CF911F910F91089582E0FA01808331
:1012A000DF91CF911F910F910895E0913E05F0914C
:1012B0003F0585858160858774876387CE010E949D
:1012C000A90478940E942307F894E0913E05F091D8
:1012D0003F05858580FD0AC0178216827894F80143
:1012E0001082DF91CF911F910F910895CE010E943E
:1012F000DE0478948AE0F8018083CACFFC01F89478
:101300008181882351F5A481B5811C962D913C9152
:101310001D971A968D919C911B972817390718F0E5
:1013200078948EE108951696ED91FC91179761934C
:1013300071931796FC93EE9316972F5F3F4F1D9670
:101340003C932E931C9714968D919C911597E817BA
:10135000F90761F0789480E00895CF0144E00E949D
:101360004E0478940E94230780E0089512968D9190
:101370009C91139717969C938E931697EBCFEF92B1
:10138000FF920F931F93CF93DF938C017A0180918B
:101390003D05882309F05CC0F894F801A481B5816B
:1013A0001C968D919C911D97009709F11896ED91CF
:1013B000FC911997C191D1911996FC93EE931897CE
:1013C00001971D969C938E931C9714968D919C91DA
:1013D0001597E817F90799F17894F7011082CE0173
:1013E000DF91CF911F910F91FF90EF900895E091C1
:1013F0003E05F0913F058585846085877487638706
:10140000C8010E94A90478940E942307F894E091EF
:101410003E05F0913F05C085D1852097F9F01186F2
:1014200010861586178216827894F7011082CE01F5
:10143000DF91CF911F910F91FF90EF900895129639
:101440008D919C91139719969C938E931897C4CF66
:1014500082E0FA018083C0E0D0E0C1CFC8010E94E1
:10146000DE0478948AE0F7018083B9CFFC01F89418
:101470008181882339F484819581892B61F0789466
:1014800084E10895CF0142E00E944E0478940E94C6
:10149000230780E0089575836483789480E008953D
:1014A000EF92FF920F931F93CF93DF938C017A01FA
:1014B00080913D058823A1F5F894F801C481D58178
:1014C000209769F0158214827894FA011082CE0177
:1014D000DF91CF911F910F91FF90EF900895E091D0
:1014E0003E05F0913F058585826085877487638717
:1014F000C8010E94A90478940E942307F894E091FF
:101500003E05F0913F05C085D185209779F0118681
:1015100010861586178216827894F7011082D7CF2D
:1015200082E0FA018083C0E0D0E0D1CFC8010E9400
:10153000DE0478948AE0F7018083C9CFCF92DF92EE
:10154000EF92FF920F931F93DF93CF930F92CDB73C
:10155000DEB78C017901F894442309F054C06095FA
:10156000FC01838186238383F801C180D280C1146A
:10157000D10409F458C019820AC08330B1F1F601D0
:10158000808191819C01690121153105D1F0F6011D
:101590008185823091F7F6016085F8018381862389
:1015A000681769F7C6010E94AF05813041F7F1E085
:1015B000F983F601808191819C0169012115310532
:1015C00031F77894F981F13059F1F894F801838179
:1015D0007894F70110820F90CF91DF911F910F91B6
:1015E000FF90EF90DF90CF900895F6016085F801AD
:1015F0008381682309F4C3CFC6010E94AF058130FF
:1016000009F0BDCFD4CF413031F0789489E9F901A8
:10161000808380E0E0CFFC018381862B8383A4CF8D
:101620000E942307D2CF1982CCCF8F929F92AF9284
:10163000BF92CF92DF92FF920F931F93DF93CF93CE
:10164000CDB7DEB72B970FB6F894DEBF0FBECDBF78
:101650006C01562FF42EF901580180913D05882325
:1016600009F547FD24C01B86F89482E0F81639F18D
:10167000A3E0FA16C9F1789487E9F501808380E048
:101680002B960FB6F894DEBF0FBECDBFCF91DF9182
:101690001F910F91FF90DF90CF90BF90AF909F90E0
:1016A0008F90089582E0D8018C9380E0E9CFBFE766
:1016B000FB2221E02B87F89482E0F816C9F6D601C8
:1016C00013969C91852F8923851709F5BB85B13029
:1016D00031F4852F80958923F6018383982F892FF4
:1016E0007894D5011C92CCCFD60113969C91852F6E
:1016F000892369F1BB85B13029F480958923F601EE
:101700008383982F892F7894D5011C92B9CFC60175
:101710004E010894811C911CB401452F22E08F01D9
:101720000E94300578940E942307F894E0913E05CA
:10173000F0913F05858585FD17C0BB85B13011F15E
:10174000F6019381892F7894D5011C9299CFC60117
:101750004E010894811C911CB401452F23E08F0198
:101760000E9430057894DFCFC4010E949005E0917B
:101770003E05F0913F05158678948AE0D5018C935B
:1017800080E07ECF2EEFF20E81E08F1520F4D6019F
:1017900013969C91D7CF82858095F60193819823EB
:1017A0009383D0CF80916004813009F00895F8943C
:1017B00080915F04882359F0815080935F048823CF
:1017C00021F480913D05882321F078940895789440
:1017D000089578940E94230708950E942A04809116
:1017E0006004813009F00895A0917B04B0917C04DD
:1017F0001E968C911E978C30B1F32091370541E0F5
:1018000050E01AC052968C915297282B5096EC912A
:101810005097F0E0E85CFA4F808151969C91519787
:10182000892B808312960D90BC91A02D78941E96E2
:101830008C911E978C30C1F0F8941B968D919C91E1
:101840001C97009779F301971C969C938E931B9796
:10185000892B41F71D968C911D9783FFD3CF1C9642
:101860005C934E931B97DECF2093370508958091AC
:10187000600481110895E0913705F0E0E35CFE4FCC
:10188000A081EA2FF0E0E85CFA4FE081F0E0E35C51
:10189000FE4FAA0FAA0FAA0F8081A80FA09365047C
:1018A000A0937A04B0E0AA0FBB1FAE51B94F8D913F
:1018B0009C91909334058093330590933F058093DA
:1018C0003E050E94310D089580916004813009F039
:1018D0000895F89480913D05882339F081508093D4
:1018E0003D05882311F07894089580915F04882342
:1018F000D1F7E0913705F0E0E35CFE4F8081809303
:101900003C05E82FF0E0E85CFA4FE081F0E0E35CB2
:10191000FE4F982F990F990F990F8081980F9093F0
:10192000650480917A049817F1F2E92FF0E0EE0F48
:10193000FF1FEE51F94F8081918190933405809380
:1019400033058091FD049091FE04A091FF04B091B5
:1019500000050196A11DB11D8093FD049093FE0426
:10196000A093FF04B09300050E94C80DBCCF0E9455
:101970002B0410923D0510925F04109208051092FE
:1019800060041092FD041092FE041092FF04109265
:101990000005109261041092620410926304109288
:1019A0006404109237051092380510923905109290
:1019B0007A04109265041092340510923305109247
:1019C0003F0510923E0510927C0410927B04E2EEDB
:1019D000F6E01192119226E0EC3FF207D1F78BEF7F
:1019E00095E0FC01719791838083439626E08F3DBB
:1019F0009207B9F71092CF061092CE0688EE95E0C6
:101A0000909306058093050520EC35E0F901CF01A0
:101A10000896108295838483FC0185E0E03EF807F8
:101A2000B1F710821582148230933B0520933A055A
:101A30000E947C050E946A068BE097E060E070E0FF
:101A40004FEB55E02CE00E94C00883E298E060E094
:101A500070E04CEF54E02BE00E94C0080E942C0480
:101A600008950E9428040091600403950093600487
:101A7000E0913305F0913405C191CDBFD191DEBF26
:101A80000F910FBF0F910BBFFF91EF91DF91CF919E
:101A9000BF91AF919F918F917F916F915F914F9186
:101AA0003F912F911F910F91FF90EF90DF90CF907A
:101AB000BF90AF909F908F907F906F905F904F906E
:101AC0003F902F901F900F9008950F921F922F928A
:101AD0003F924F925F926F927F928F929F92AF92BE
:101AE000BF92CF92DF92EF92FF920F931F932F93AB
:101AF0003F934F935F936F937F938F939F93AF9396
:101B0000BF93CF93DF93EF93FF930BB70F930FB771
:101B10000F93E0913E05F0913F05CDB7C193DEB73D
:101B2000D1930E9428040091650400937A04E09107
:101B30003305F0913405E0933E05F0933F05C191E4
:101B4000CDBFD191DEBF0F910FBF0F910BBFFF91A2
:101B5000EF91DF91CF91BF91AF919F918F917F9145
:101B60006F915F914F913F912F911F910F91FF9036
:101B7000EF90DF90CF90BF90AF909F908F907F902D
:101B80006F905F904F903F902F901F900F9008950F
:101B90000E9428040091650400937A04E0913305C3
:101BA000F0913405E0933E05F0933F05C191CDBF20
:101BB000D191DEBF0F910FBF0F910BBFFF91EF913E
:101BC000DF91CF91BF91AF919F918F917F916F9155
:101BD0005F914F913F912F911F910F91FF90EF9047
:101BE000DF90CF90BF90AF909F908F907F906F903D
:101BF0005F904F903F902F901F900F9008950F92FD
:101C00001F922F923F924F925F926F927F928F928C
:101C10009F92AF92BF92CF92DF92EF92FF920F937B
:101C20001F932F933F934F935F936F937F938F9364
:101C30009F93AF93BF93CF93DF93EF93FF930BB734
:101C40000F930FB700680F9300913D050395009324
:101C50003D05013041F4CDB7DEB7E0913E05F0918E
:101C60003F05C193D19304E602BF78940E94ED0B27
:101C700000000E94640C0F910FBF0F910BBFFF91EA
:101C8000EF91DF91CF91BF91AF919F918F917F9114
:101C90006F915F914F913F912F911F910F91FF9005
:101CA000EF90DF90CF90BF90AF909F908F907F90FC
:101CB0006F905F904F903F902F901F900F900895DE
:101CC000629FD001739FF001829FE00DF11D649F20
:101CD000E00DF11D929FF00D839FF00D749FF00DAC
:101CE000659FF00D9927729FB00DE11DF91F639F4D
:101CF000B00DE11DF91FBD01CF0111240895A1E22E
:101D00001A2EAA1BBB1BFD010DC0AA1FBB1FEE1F75
:101D1000FF1FA217B307E407F50720F0A21BB30BC0
:101D2000E40BF50B661F771F881F991F1A9469F73C
:101D300060957095809590959B01AC01BD01CF0198
:061D40000895F894FFCFA6
:101D46000100FFFF422B112B4242422B2B2B4261FB
:101D560061422B112B4242422B2B422B113F065B39
:101D66004F666D7D277F6F777C395E79718040087D
:101D76003C1E5438790102040810204080000001FE
:101D8600000200010003000100020001000400013E
:101D9600000200010003000100020001000500012D
:101DA600000200010003000100020001000400011E
:101DB600000200010003000100020001000600010C
:101DC60000020001000300010002000100040001FE
:101DD60000020001000300010002000100050001ED
:101DE60000020001000300010002000100040001DE
:101DF60000020001000300010002000100070001CB
:101E060000020001000300010002000100040001BD
:101E160000020001000300010002000100050001AC
:101E2600000200010003000100020001000400019D
:101E3600000200010003000100020001000600018B
:101E4600000200010003000100020001000400017D
:101E5600000200010003000100020001000500016C
:101E6600000200010003000100020001000400015D
:0E1E7600000200010003000100020001000054
:00000001FF
